:020000042000DA
:1000000000200820A50100201B0100201D01002068
:100010001101002011010020110100201101002018
:100020001901002019010020190100201F010020E2
:1000300011010020190100202101002023010020CE
:1000400011010020110100201101002011010020E8
:1000500011010020110100201101002011010020D8
:1000600011010020110100201101002011010020C8
:1000700011010020110100201101002011010020B8
:1000800011010020110100201101002011010020A8
:100090001101002011010020110100201101002098
:1000A0001101002011010020110100201101002088
:1000B0001101002011010020110100201101002078
:1000C0001101002011010020110100201101002068
:1000D0001101002011010020110100201101002058
:1000E0001101002011010020110100201101002048
:1000F0001101002011010020110100201101002038
:100100001101002011010020110100201101002027
:10011000EFF30580103800BE00BE00BE00BE00BE7A
:1001200000BE00BE06005250ABB36053D851002051
:1001300006005250861C0302E8510020060052506F
:100140005422A29DF0510020F2EB8871B45200209D
:10015000CC520020D001002090A31AE7D3DEFFFF8D
:10016000420121100302000000000020FF030000F4
:1001700000000000793512AB20485FF44041016077
:1001800030EE10F704D440EC800740EC810740BF0C
:10019000002080F30A881A481A49086006C881F3CB
:1001A000088810474FF05040006810B14FF0000031
:1001B000F2E71549154A002000E001C19142FCD147
:1001C00013498847134988471349884700BEFDE70C
:1001D000CC520020CC520020905300200000082078
:1001E000000008200000082000100820001008204F
:1001F00000100820000000007047000088ED00E0BB
:100200000000002008ED00E090530020B0550020D1
:100210001D360020F9040020153600204FF0504113
:100220002DE9F0410027044616461D46D1F800800E
:1002300008E0C1E88F7F8CF310883046294601F032
:1002400091FAE8B92168EFF3108C72B6D1E8CF2F9C
:100250000123002AFAD1C1E8423F002AF6D1BFF3B8
:100260005F8F94F904302168002BE2DA002384F8D0
:100270000480C1E88F3F8CF310880120BDE8F08135
:100280000020BDE8F08100BF30B50468EFF3108CAA
:1002900072B6D4E8CFEF0125BEF1000FF9D1C4E862
:1002A0004E5FBEF1000FF4D1BFF35F8F90F90440B1
:1002B0000568002C10DB0021C5E88F1F8CF3108827
:1002C0004FF0504595F90050A54201D1084630BD88
:1002D000BDE83040FFF7A2BF4FF050421268002344
:1002E0000271C5E88F3F8CF31088012030BD00BF3C
:1002F0000368EFF3108272B6D3E8CFCF0121BCF1CF
:10030000000FF9D1C3E84C1FBCF1000FF4D1BFF3CB
:100310005F8F4FF0FF0C0023016880F804C0C1E834
:100320008F3F82F3108840BF704700BF70B51D46F5
:1003300084461C4615B3C4B1DCF80C6004F1080E09
:10034000B60706D5754533D211F8010B013CCCF840
:100350000800DCF80C004007EDD5DCF80860013D32
:1003600002F8016B002DE6D108E0DCF80C6076079E
:10037000F3D4DCF80C607607EFD4F6E76CB1DCF868
:100380000C209007FBD514F1080F08D011F8012BB1
:10039000013CCCF80820002CF1D1184670BDDCF8E7
:1003A0000C209207EBD5DCF80C209207F7D4E6E797
:1003B000DCF80C004007D0D4BEE700BF84461046EE
:1003C0006AB3013900B501EB020EDCF80C309B0773
:1003D000FBD511F8013F7145CCF80830F5D1DCF8B8
:1003E0000C30590705D5DCF80830DCF80C3059071B
:1003F000F9D4DCF80C30DA0606D5DCF80C30DA0675
:10040000F7D401E0DCF80830DCF80C305B07F9D4F5
:100410000123CCF820305DF804FBDCF80830DCF870
:100420000C305907F9D4DCF80C30DA0606D5DCF8C4
:100430000C30DA06F7D401E0DCF80830DCF80C30D8
:100440005B07F9D40123CCF82030704710282DE940
:10045000F0411ED0112807D012280FD00F2801D14B
:100460000B0721D4BDE8F081552001231A491B4C0C
:100470001B4A087023701370BDE8F0810F2401221D
:100480001549164B0C701748BDE8F0411A7003F07F
:100490001BBAF02401221049104B0C701248BDE821
:1004A000F0411A7003F010BA104C114DD4E900233A
:1004B000C5E9002301F0DAF902460B46C4E900233E
:1004C000D4E90067D5E90045321B67EB050309480D
:1004D000BDE8F04103F078BACC520020AD550020C1
:1004E000AF55002018510020085100201055002061
:1004F00018550020245100202DE9F04F584E99B096
:1005000006F1080396E8030002908DF80C1093E8BA
:1005100003000B0C069008A8ADF81C108DF81E30D7
:1005200004F076FA4F49089B02A89847099B06A851
:100530009847169B9847102000F01AFA4FF01008C1
:100540004FF0000444EC448000220121404600F0BA
:10055000A7F9112000F00CFA112744EC4470002296
:100560000121384600F09CF9122000F001FA122512
:1005700044EC445000220121284600F091F90F205C
:1005800000F0F6F94FF00F0944EC44900122404688
:100590000421354B00F098F9384601220421324BF2
:1005A00000F092F92846012204212F4B00F08CF92B
:1005B0004846012208212C4B00F086F92B4DDFF82C
:1005C000C480DFF8C4A02A4FDFF8C09004AC103616
:1005D00003E03B7813BBBFF35F8F2B78002BFAD07F
:1005E00096E803004FF0000B206004AC0B9B8DF8E5
:1005F0001410204685F800B09847139B01211D4830
:10060000984798F80030002BE3D088F800B001F04C
:100610002DF93B78CAE90001002BDCD000233B70A8
:1006200001F024F90B460246C9E900231248DAE931
:10063000002303F0C9F9D9E90023104803F0C4F9F5
:10064000D9E90023DAE900BCCDE90023009B0C487E
:10065000B3EB0B02019B63EB0C0303F0B5F9BAE7B4
:100660001C520020404B4C004D040020AD55002092
:10067000AF550020CC5200203C51002054510020A6
:100680006C510020AE550020105500201855002058
:100690004FF050422DE9F84F6D4BD2F800A053F8BF
:1006A0002A70BAF1000F2CD0DFF8B0816FB30026AA
:1006B000DFF8A0B1DFF8A091F3080C3358F823500D
:1006C00034460836CDB105F00F0120462D0901341E
:1006D00089B15BF82A2000F00703C2404FEAD00C32
:1006E0009B00D20701FA03F30CF18C0C02D449F8F9
:1006F0002C30B8470DB1B442E5D3202EDCD1BDE893
:10070000F88FDFF85C81002FD1D15248F90801F150
:100710000C0358F82330002B7BD013F00F054FEA61
:1007200013120AD050F82A40FC40E60703D44A4C82
:100730008C3144F82150002A6BD012F00F024FEA9E
:1007400013210DD050F82A407D1CEC40E40705D45D
:10075000EC08414D12018C3445F82420002958D072
:1007600011F00F014FEA133207D050F82A40BD1C98
:10077000EC40E60757D5002A4BD012F00F024FEAA3
:10078000134107D050F82A40FD1CEC40E40751D536
:1007900000293ED011F00F014FEA135207D02D4C23
:1007A00054F82A503C1DE540EE074AD58AB312F0B2
:1007B0000F024FEA13610DD0264C54F82A507C1DCD
:1007C000E540ED0705D4244DE40812058C3445F8C6
:1007D0002420F1B111F00F014FEA13731FD01D4C0B
:1007E000BD1D54F82A20EA40D60705D4EA081A4D60
:1007F00009068C3245F822105BB154F82A10FA1D14
:10080000D140C90705D41449D2081B078C3241F8DE
:1008100022300837202F7FF479AFBDE8F88F002B06
:10082000F7D00C4CE9E7EC080B4D09028C3445F885
:100830002410A0E7EC08084D12038C3445F824205E
:10084000A6E7054DE40809048C3445F82410ADE70B
:1008500040550020A05500200080024090820240B8
:100860004882024010B44FF480740C4B53F820209F
:1008700003EB8003C00082F0400200F1804003F5EA
:10088000805C02F0C00200F5203003F54053CCF844
:10089000002041601C605DF8044B704704800340F9
:1008A00010B4084CC90041EA820154F8202004EB3E
:1008B0008003514003F5805301F00C015DF8044BB7
:1008C00019607047048003402DE9F0434FF0504910
:1008D0001F46DFF89880D9F80030164658F82320D4
:1008E00004460D4683B032B387B348F823704FF007
:1008F00050431B68BBB1194BE10804F00704184AC8
:10090000A40005FA04F403EB81038C3142F8214082
:100910005EB10121152003F500531C6003B0BDE852
:10092000F04300F0CDB80F4BE6E703F540531C60F1
:1009300003B0BDE8F083002FDCD015200A4948F849
:10094000237000F003F9D9F80030D3E715200649E9
:10095000019300F0EFF9019BC7E700BF90820240CE
:10096000008002404882024091060020405500204D
:1009700030B44FF0000343EC440043EC4000052545
:100980004FF480740B4BC20053F8201003EB80002F
:1009900081F0400102F1804303F5203301F0C002F1
:1009A00000F5805100F540500A605D60046030BC85
:1009B000704700BF048003400FB400B583B0049CAF
:1009C000074802F081FF3CB105A92046019102F0E1
:1009D00007FE044802F078FF012002F019FE00BF74
:1009E000885100209851002070B58646EFF310859D
:1009F00072B6124CD4E8CF6F0120002EFAD1C4E8B1
:100A0000460F002EF6D1BFF35F8F4FF0010CC808E0
:100A100001F007030CFA03F31EF800C01CEA0306FA
:100A200008D14CEA030C0EF800C0C4E88F6F85F3C0
:100A3000108870BD1046FFF7BFFF00BF2B55002088
:100A4000044A1078431CDBB2182B28BF1023137004
:100A5000704700BFCD5200204FF0E022936843F072
:100A600000539360704700BF0021044B03F1200244
:100A7000C3E88F1F01339342FAD1704720550020FD
:100A80004FF0E0234FF08032C3F80024C3F8042471
:100A9000C3F80824C3F80C24C3F81024C3F81424A2
:100AA000C3F81824C3F81C24C3F82024C3F8242452
:100AB000C3F82824C3F82C24C3F8302462B6704746
:100AC000012300F01F029340400941B1800000F172
:100AD000604000F56140C0F8803103607047024A11
:100AE000203042F82030704700E100E0F8B50D46B4
:100AF000EFF3108772B6124ED6E8CF2F0123002AEB
:100B0000FAD1C6E8423F002AF6D1BFF35F8F0D4B02
:100B100000F110049B680C4A53F82430934203D030
:100B2000994201D000F0BCFF064B9B6843F824506B
:100B3000BFF35F8F0023C6E88F3F87F31088F8BDAF
:100B40002955002000ED00E0110100202DE9F04FB3
:100B500081468B46164683B0EFF3108372B6DFF8FA
:100B6000D0A10093DAE8CF1F01230029FAD1CAE807
:100B7000413F0029F6D1BFF35F8F664B93F90040E8
:100B8000002CC0F2A080644D04EB440705EB8708FD
:100B900098F8061009F110091970604BBF009B68A6
:100BA00053F829006300411B2F292FD95C49884243
:100BB00040F0A4801C445B4B02372F44043BDB1BFA
:100BC000C3F34A036FEAC3434FF421416FEAD343AF
:100BD00025F8241005EB840463804BF60153A380B1
:100BE000FF2348F00100E671C4F808B0A3714B4B35
:100BF0009B6843F82900BFF35F8F0023CAE88F3F4B
:100C0000009B83F3108803B0BDE8F08F20F0010E45
:100C10009EF80710B1422ED84FF42143EB53414BBD
:100C2000B91C2944043B04375B1A2F44AEF104017C
:100C3000C91BC1F34A043C49C3F34A030B43214394
:100C4000A8F804103949A8F802304AF6AA207346D9
:100C50005B1B5B415843000D88F8076088F806006D
:100C6000C8F808B048F00100CEF80010BFE7D1790D
:100C7000B1422ED996469EF906C00CEB4C02BCF14F
:100C8000000F05EB8202F2DA4BF601510EF104027D
:100C9000A8F10407BF1AC7F34A076FEAC7476FEA0C
:100CA000D7478EF8064003EB0408204C05EB880379
:100CB000AEF8047045F82840998083F806C0DE71CC
:100CC000C3F808B093E700F0EBFE124B93F9004035
:100CD00059E7724632F8041F490514D44915023108
:100CE00002EB410101916FF00701C91B019F491BF4
:100CF0003944C1F34A0141F46041C9E7019300F06E
:100D0000CFFE019B56E701F5FF1101F5FF511F31A1
:100D1000E4E700BFAC550020D052002000ED00E019
:100D2000110100200053002000E0FFFF0148804730
:100D3000295500202DE9F04F83B0EFF3108A72B6E9
:100D4000714ED6E8CF2F0123002AFAD1C6E8423FE0
:100D5000002AF6D1BFF35F8F6C4B00F110089B683F
:100D60006B4A53F82850954245D08D420C4650D0DE
:100D7000684FEB1B2F2B3ED801214FEA50194FEA49
:100D8000890909F1604909F5614900F01F0301FA79
:100D900003F0D9F80030C9F8800000EA030BBFF374
:100DA0005F8FEFF30581C9B2002934D0884505D0A3
:100DB000CDE9001000F074FEDDE9001025F0010E11
:100DC000DEF808C0644505D189E0D3F808C0644561
:100DD00031D09E469EF9062002EB4203002A07EB23
:100DE0008303F2DA644561D0BBF1000F20D0C9F86B
:100DF0008001C9F80000454B9B6843F82850BFF3B9
:100E00005F8F0023C6E88F3F8AF3108803B0BDE8E8
:100E1000F08F1546EFE725F0010EDEF808C06445B7
:100E2000D8D19EF906407346002C08DA154646E0F4
:100E3000C9F88000DFE793F90640002C37DB04EBAC
:100E4000440C07EB8C0C9CF80710DCF80820D971D7
:100E50009A609CF906206100002A9A713DDBBCF87B
:100E600004E05FEA4E5E05D50EF5FF1E0EF5FF5E4F
:100E70000EF11F0E6FF0070C0A194FEA6E5E92001A
:100E800002EB4E0208323A44ACEB030C6244C2F36C
:100E90004A026FEAC2426FEAD2429A801E4B214454
:100EA0001A7807EB81011C708A719DE77346D9B9E6
:100EB000FF228EF806204BF60152AEF80420164CA5
:100EC0004AF6AA2294F800C01946C91B49414A4370
:100ED000120D83F806C0227086E7104ADDE79EF9FE
:100EE00006407346002CAADA0D4A0E4CD21A083A74
:100EF000C2F30A316FEA01516FEA115144EA52021A
:100F0000DA80998070E700BF2955002000ED00E0ED
:100F100011010020D0520020AC55002001BDFFFF80
:100F20000A53002000F8FFFFF0B5EFF30585EDB29E
:100F3000EFF3108C72B62649D1E8CF2F0123002A97
:100F4000FAD1C1E8423F002AF6D1BFF35F8F214EAC
:100F500040F0010EB4684AF6AA2354F825701E4AE0
:100F60000446A41A644163431B0D77455BB21BD052
:100F700092F906409C421CD092F912409C4223D028
:100F800092F91E409C4221D092F92A409C4208BF0F
:100F900003240FD0114A0024157813708571C1E81D
:100FA0008F4F8CF31088F0BDB2680D4C42F825408D
:100FB000F0E7002404EB440402EB8402FF24947164
:100FC0004BF601549480E5E70124F3E70224F1E7AE
:100FD0002955002000ED00E0D0520020AC55002043
:100FE00011010020014B0B44036070472055002085
:100FF00070B5104C104DAC420ED2FF26236863B181
:10100000FFF71EFD01462046FFF7ECFFA680BFF369
:101010005F8F0834AC42F1D370BDFFF711FD01467C
:101020002046FFF7DFFF2671BFF35F8F0834AC4225
:10103000E4D370BD50530020585300200D4B1A6864
:10104000EFF3108172B6D2E8CFCF0120BCF1000FD0
:10105000F9D1C2E84C0FBCF1000FF4D1BFF35F8FA0
:1010600000221B68C3E88F2F81F3108840BF002047
:1010700000217047A85500202DE9F04F2DED028B7F
:1010800085B0EFF30583DBB2103B9A0818BF01224D
:101090004FF0010103F0030B18BFAF4DAF4B08BF7A
:1010A000AF4D0BEB820253F8226001FA0BF205F50B
:1010B00041539FEDA78B01925A602FE0B3881C0427
:1010C00040F19380B379002B40F0DD80B6F9082021
:1010D000002AC0F21E81736902EB420203EBC203D5
:1010E000D3E90247B7F1FF3F08BFB4F1FF3F0ED08D
:1010F00005EB8B01AB6A0A69D21AE31A934205D356
:1011000001232A6A03FA0BF3134200D10C6128462B
:1011100000F0A4FBA042B941C0F2FB80B6F9083050
:10112000019A002B0093EA63C8DBD6F8148003EB26
:101130004309284608EBC907D7E9024A00F08EFBAD
:10114000A04271EB0A01B9DBBAF1000FC0F2C38013
:10115000D7E90431834A934200F0ED807A88B6F9EA
:10116000080092B242EA0040984702460B4652EA13
:10117000030100F0B080002B80F2D180B4EB020EAE
:101180006AEB030A38F93930C7E902EA002B95DB2C
:10119000716903EB430201EBC202D2E90270BE4562
:1011A0007AEB000C4FEA430288DBB4462CF8083F88
:1011B00006E003EB430001EBC0005A00D0E90270E7
:1011C000BE451A447AEB000001EBC20404DB31F99E
:1011D0003230A446002BECDA28F83930009BACF80A
:1011E0000030B3881C043FF56DAF3369EFF3108214
:1011F00072B6D3E8CF0F01210028FAD1C3E8401F0F
:101200000028F6D1BFF35F8F4FF6FF74B08800233C
:10121000316900B2B480C1E88F3F82F310889842F0
:10122000FFF650AF0746A946746906F1080807EBB8
:10123000470E04EBCE03D3E90250B6F90830C4469A
:10124000002B13DBB246009704E034F936309446A5
:10125000002B09DB03EB430604EBC602D2E9027163
:10126000BD4270EB0101F0DA5646009FACF8007009
:1012700034F93E7024F83E30002FD8DAB3794D4669
:10128000002B3FF423AF0023B371B6F9083006F109
:101290000808581C3DD01A46776903E08046591C5F
:1012A0003FF416AF03EB430107EBC100B0F802C0F7
:1012B0001C461CF4004F9E4637F93130EED0944264
:1012C00080ED028B05D0A8F80030328927F8312054
:1012D00034817246E3E738F8393033813369EFF30C
:1012E000108272B6D3E8CF0F01210028FAD1C3E8EB
:1012F000401F0028F6D1BFF35F8F7388316928F84B
:101300003930009B73800023C1E88F3F82F310883F
:10131000D4E640BF05B0BDEC028BBDE8F08F284697
:10132000CDE9022300F09AFA029A039B10EB020E19
:1013300043EB010A26E708460B690291984700280B
:10134000C9D00299D1E9002311E700BFAFF30080B3
:10135000FFFFFFFFFFFFFFFF00800B4080550020D5
:1013600000000B40791000202DE9F84F364C25691C
:101370002DB1BDE8F84F0A213448FFF733BEDFF83E
:10138000E4800321404600F057FA0326C4F80C809D
:10139000FFF756FB4FF0504C2D4B26700344236152
:1013A000DCF800300F216370636961801D834FF0AA
:1013B0000405A3F878504FF00505A3F890504FF0BE
:1013C0000605A3F8A8504FF007050E214FF6FF724F
:1013D00008274FF00A0EA3F8C0504FF001094FF054
:1013E0000C0C4FF0020B4FF0090A0D204FF00B05CB
:1013F000A3F868111749A280A3F808E1A160A3F837
:1014000048B0A3F8F0A0A3F82051A3F838C1A3F87E
:101410005001A3F83090A3F86060A3F8D8701A8048
:101420000D4B3046C8F820700C49DC60FFF75EFBBE
:1014300049463046FFF744FB094B0A211F64034825
:10144000BDE8F84FFFF7CEBD18530020A855002087
:1014500020550020FFFF100080550020791000204B
:1014600000200B4000000B400146F0B50069EFF38F
:10147000108772B6D0E8CF5F0124002DFAD1C0E802
:10148000454F002DF6D1BFF35F8FB1F902E04C69F3
:101490000EEB4E0CBEF1000F4FEACC05086904EBD1
:1014A000CC0C3CDB665B4E800026C0E88F6F87F378
:1014B0001088BCF80200CCE902230130C0F30E0012
:1014C000012838BF0120059BACF80200CCF8103091
:1014D000069B40EA0E40CCF814300B69EFF3108203
:1014E00072B6D3E8CFCF0127BCF1000FF9D1C3E822
:1014F0004C7FBCF1000FF4D1BFF35F8F8B88635337
:10150000A1F804E00B69C3E88F6F82F31088012211
:10151000CB68097803F501538A405A60F0BD002377
:10152000C0E88F3F87F310884FF0FF30F0BD00BF59
:1015300003464089B0EB214F37DD58690A1402EBAE
:10154000420210B500EBC2001C69EFF3108C72B6BA
:10155000D4E8CFEF0122BEF1000FF9D1C4E84E2F3D
:10156000BEF1000FF4D1BFF35F8F428889B292B20F
:101570008A4207D000221B69C3E88F2F8CF31088A2
:10158000002010BD42F4004242800121002218696F
:101590009971C0E88F2F8CF310881C78DA680846A0
:1015A00002F50153A140596010BD0020704700BFF3
:1015B0002DE9F04182B004460E4600F057F94FF095
:1015C000FF326FF00043241846EB0106A24273EB92
:1015D00006013CBF14461E46A51F46F1FF37AC422C
:1015E00076EB07033CBF00252F4600F03FF9281A91
:1015F00067EB010C01287CF1000C06DA204631462D
:1016000002B0BDE8F04100F03BB900F02FF985428F
:1016100067EB010100290ADB0021174B2A460093E2
:1016200016483B460191FFF71FFF0130E6D04FF00F
:10163000000C134A1349536A9F4204D8906AA84287
:10164000DCD29F42DAD10B68EFF3108072B6D3E898
:10165000CF8F5FF0010EB8F1000FF8D1C3E848EF6B
:10166000B8F1000FF3D1BFF35F8F0B68C3E88FCFE2
:1016700080F3108820BFDEE73D10002018530020C3
:1016800000000B40A85500202DE9F04182B006462D
:1016900000F0ECF84FF47A7304464FF0FF306FF02F
:1016A0000042E6FB0341A04272EB01033ABF04464D
:1016B00015460D46A61F45F1FF37B44275EB0703EB
:1016C0003CBF0026374600F0D1F8301A67EB010125
:1016D000012871F1000106DA2046294602B0BDE872
:1016E000F04100F0CDB800F0C1F8864267EB01018F
:1016F00000290ADB0021174B3246009316483B466F
:101700000191FFF7B1FE0130E6D04FF0000C134A13
:101710001349536A9F4204D8906AB042DCD29F4278
:10172000DAD10B68EFF3108072B6D3E8CF8F5FF099
:10173000010EB8F1000FF8D1C3E848EFB8F1000F7F
:10174000F3D1BFF35F8F0B68C3E88FCF80F31088AE
:1017500020BFDEE73D1000201853002000000B40A2
:10176000A85500202DE9F04306460D4683B0EFF35F
:101770000584E4B23CB12D4B5A6AAA421CD2002027
:1017800003B0BDE8F0832A4FD7F80C9097F800809B
:10179000484600F063F808F1040859F828301B1A8D
:1017A000301A65EB0101984271F1000110DB20BF96
:1017B0001E4B5A6AAA42E2D314BF012400249B6A3A
:1017C000B34234BF204644F0010003B0BDE8F083CB
:1017D00000F04CF8864265EB0101002914DB154B43
:1017E0003846CDE9003432462B46FFF73DFE011E58
:1017F0000ADD0E4B5A6AAA4216D39B6AB34211D332
:101800000B48FFF795FEB6E7084B5C6AAC42B6D3CF
:10181000641B18BF01249B6AB34234BF204644F0C6
:101820000100ADE7AA42EBD120BFE9E700000B4081
:10183000185300203D10002010B4054B054C064AFB
:10184000A04214BF1846581C5DF8044BFFF7CCB8F3
:101850004855002000800B409C5100200346416AFF
:101860000A46986A596A8A42FAD17047034B596A04
:101870000A46986A596A9142FAD1704700000B40B3
:10188000074A536A9942FCD8994207D1044B02E0B7
:101890005A6A914202D19A6A9042F9D8704700BFC1
:1018A00000000B4000EB400C4FEA8C0C0CF1804C1C
:1018B0000CF5803CF0B51646DCF80420051FB2F5A7
:1018C000803F38BF4FF48032EDB238BFCCF80420EF
:1018D000012D2AD94FF40067254C0CF540521760B2
:1018E00054F82020B2B9DCF80020012D82EA46121B
:1018F00002F0E0020CF5805632602AD94FF4006104
:1019000044F820304FF480330CF500521160CCF8CD
:101910000430F0BD6769B7FBF2FE0EF1010E0EEB6D
:101920004E0EBEF1030EFCD2DDE70129D2D1032415
:101930000CF540521460DCF80820D207FBD5DCF827
:1019400000200B4C82EA461202F0E0020CF58056B1
:1019500032600122DCF800504D4005F0030535608F
:1019600002FA01F1DCF808200A42FBD0C6E700BF0A
:101970004C550020014B53F8200070474C55002077
:1019800070B4039D04682D0345EA03451B4B002CEE
:10199000B3FBF1F3B2FBF3F61FDB194A194B90428C
:1019A00014BF4FF480424FF40042174C1A6003F505
:1019B00080531A60A36832EA0303FBD1212200F5A9
:1019C00040530433016086601A600268002AFCDA22
:1019D0000822C5601A6070BC7047036803F03F03BB
:1019E0008B42DAD18368C3F30B03B342D5D1C3680A
:1019F00003F4EE23AB42D0D1EDE700BF001BB700EC
:101A0000008005400020024000000240012300EB5E
:101A10004000800000F1804000F5841041600360C8
:101A2000704700BF0023DB8A002242E800F2520226
:101A300001D4102118470421184700BF034AD2F8E7
:101A40002838002BFBD0BFF35F8F704700000E409B
:101A50000021044B044ABFF35F8F43F8041B9342F9
:101A6000F9D170470C080E402C080E4010B44FF40A
:101A70008D704FF42A64064A064B07491460D06003
:101A800019605368002BFCDA5DF8044B704700BF07
:101A90000080044000A0044000B0FA00704700BF7E
:101AA00008B50148FEF788FFC051002038B5054C45
:101AB000054DAC4204D254F8043B9847AC42FAD3EB
:101AC00038BD00BF585300209053002010B4074881
:101AD000074C084B084A094904601A608B6832EACF
:101AE0000303FBD15DF8044B704700BF00200240A8
:101AF0007F3BEFEF00300240F6FFF30300000240AF
:101B0000044BDB6CB3F5004F03D14FF48022024B42
:101B1000DA64704700001150002011504FF0E022AD
:101B2000044BD2F8881D0B43C2F8883D10EE3004F8
:101B3000704700BF030330006FF06041044B054A5B
:101B400019609368DB4333F06043FAD1704700BFFC
:101B5000003002400000024010B545F25320FFF76C
:101B600061FFBDE81040034601201847FEF77CBF27
:101B7000002370B52B4C82B0C4F88430FFF776FF99
:101B80000122294BDA63636C012BFCD10321264A25
:101B9000244B11639C6B012CFCD1022605252146A8
:101BA0000523224A22480096FFF7EAFE21462B46EB
:101BB000204A21480095FFF7E3FE00220420314629
:101BC0001E4BFFF76FFE2146284600221C4BFFF7F5
:101BD00069FE0022082011461A4BFFF763FE00221F
:101BE00009201146174BFFF75DFE00220620114623
:101BF000134BFFF757FE0022114B07201146FFF74A
:101C000051FE0420FFF7B6FE00240F4BA3FB003566
:101C1000AD0CE0B229460134FFF7F8FE062CF8D1EE
:101C200002B070BD0000014000300140002F685933
:101C300000000540008C864700800540001BB7006F
:101C400080D1F008006CDC0283DE1B4386B003B455
:101C500051FC0804CDE9020151FC0904CDE904015D
:101C600051EC0A04CDE9060103BCF047BDE8005081
:101C70004EEC00C4BDE800504EEC01C4BDE800507D
:101C80004EEC02C400BD000000B5FFF7DFFF02E02C
:101C900010FE30F4F8D441EC100443EC112400EEB3
:101CA000010410EE010480EE200451EC1004704792
:101CB00000B5FFF7CBFF02E010FE30F4F8D441ECA2
:101CC000100443EC112400EE010410EE210480EE18
:101CD000200451EC3004704700B5FFF7B7FF02E075
:101CE00010FE30F4F8D410B541EC100443EC11248C
:101CF00051EC040453EC0524A0FB024C5FF0000EF1
:101D0000E0FB03CEE1FB02CE4CEC20440024E1FBDF
:101D100003E444EC30E480EE200451EC5004BDE8D0
:101D20001040704700B5FFF791FF02E010FE30F45D
:101D3000F8D441EC100443EC112451EC2104A0FB35
:101D400001126FEA820252FB100052FB12F252FBA8
:101D50001000A0EBD07C53EC04245CFB13F153EC9B
:101D60001524A1FB022001FB030053EC4424A2EB49
:101D7000000050FB1CF24FEA111312EB017043EB11
:101D8000E27140EA515020EA915020F0070053ECF4
:101D90007524A0FB023C53EC752400FB03CC01FB33
:101DA00002CC53EC0424ACEB824C40EA5C70A0F112
:101DB000010041EC400480EE200451EC70047047B7
:101DC00000B5FFF743FF02E010FE30F4F8D440EC1A
:101DD000700400EE010410EE210480EE200451ECAA
:101DE0003004704700B5FFF731FF02E010FE30F419
:101DF000F8D440EC600400EE010410EE210480EE03
:101E0000200451EC3004704700B5FFF71FFF02E0DB
:101E100010FE30F4F8D441EC800400EE010410EE22
:101E2000010480EE400410EE1304704700B5FFF784
:101E30000DFF02E010FE30F4F8D441EC800400EE17
:101E4000010410EE010480EE400410EE33047047EC
:101E500000B5FFF7FBFE02E010FE30F4F8D441ECD1
:101E6000100443EC112400EE010410EE3004C0F322
:101E70000070704700B5FFF7E9FE02E010FE30F495
:101E8000F8D443EC102441EC110400EE010410EEF0
:101E900030F48CBF01200020704700BF00B5FFF771
:101EA000D5FE02E010FE30F4F8D443EC102441ECEF
:101EB000110400EE010410EE30F42CBF01200020CC
:101EC000704700BF00B5FFF7C1FE02E010FE30F41E
:101ED000F8D441EC100443EC112400EE010410EEA0
:101EE00030F42CBF01200020704700BF00B5FFF781
:101EF000ADFE02E010FE30F4F8D441EC100443ECE7
:101F0000112400EE010410EE30F48CBF01200020FB
:101F1000704700BF704700BF2DE9F04F83B099466E
:101F2000DDE90DAB0F9B884611469A07074616D18F
:101F3000DA453AD20C460D46ABEB0A060E44224671
:101F40004B46414620200134B847B442F7D12946D8
:101F5000BAF1000F08D1204603B0BDE8F08F0C465F
:101F6000BAF1000F10D00E4655460C9B2E449A44F1
:101F70000191721B4B46013D41461AF8010D344652
:101F8000B847002DF5D101990F9B9B07E3D5651A42
:101F9000AB45E0D922464B46414620200135B847A3
:101FA0005D4504F10104F5D3D5E70C46BAF1000F05
:101FB000D9D1D0E72DE9F04F0F9FDDF8248017F03D
:101FC000020F0A9C9DF82CA00E9DDDE90C9644D1D1
:101FD000F5BBB44241D207F0010B04F1FF3C4FF0D6
:101FE000300EC44404E00134A6420CF801EF01D9DC
:101FF000202CF8D1BBF1000F00F08880A5422CD92D
:1020000004F1FF3C4FF0300EC44404E00134AC4214
:102010000CF801EF21D0202CF8D117F0100F0ED0C2
:1020200017F4806F54D1A64263D0A54261D0B9F1B4
:10203000100F50D0B9F1020F56D0202C29D12024F6
:10204000CDE90B57CDE90984BDE8F04FFFF764BF38
:1020500017F0010B34D1B442BFD317F0100F1ED0CC
:1020600017F4806FE3D1002CDDD1B9F1100F63D0EC
:10207000B9F1020F77D0302488F800400124BAF17A
:10208000000F11D17E0748D52B2608F804600134D3
:10209000D6E7264601344FF0300C08F806C0202C55
:1020A000CDD0BAF1000FEDD02D2608F80460013430
:1020B000CDE90B57CDE90984BDE8F04FFFF72CBF00
:1020C000BAF1000F30D0B44205F1FF3585D395E762
:1020D000B9F1100FB3D1BE063BD5202CAFD0582696
:1020E00008F804600134A8E7202CA8D02646013463
:1020F00007E0661EB9D0B9F1100F36D0B9F1020F62
:10210000C9D14FF0620C08F806C096E717F0100F1F
:10211000C5D017F4806F86D089E73E0790D520267A
:1021200008F8046001348BE717F00C0F00D0013D74
:10213000B442FFF452AF61E7BC0612D4782488F8A9
:102140000040302488F801400224BAF1000F99D0F1
:10215000AAE7202C3FF473AF782608F80460013416
:102160006BE75824EBE76224E9E717F0200FA4F1AE
:10217000020C04D04FF0580E08F80CE08BE74FF03B
:10218000780E08F80CE086E700B9704701F05ABBFA
:1021900010B1D1E900311847704700BF00000000BE
:1021A0002DE9F04F97B09DED207BDDE9225B0746DE
:1021B000884651EC170B249C99460C920B4602461C
:1021C0008DED047B0794FFF747FE002840F0F48173
:1021D000DDE904014FF0FF326FF48013FFF74EFE8C
:1021E000002840F01B81DDE904014FF0FF32AC4BC9
:1021F000FFF780FE002840F0EE80DDE90401A4A393
:10220000D3E90023FFF776FE002840F0D380DDE914
:102210000401A1A3D3E90023FFF730FE002840F01A
:10222000C980DDE9040100220023FFF727FE002812
:1022300040F0E88023460D9013F4806F08BF062518
:1022400030212B460EAAA5F1200605E0013BB34242
:1022500002F8011B00F09381092BF7D81E46ED1AF6
:10226000DDE90401FFF7D4FD8E4B044603EBC60302
:1022700093ED007B8DED087BFFF7A6FD02460B4634
:10228000DDE90401FFF718FDDDE90823FFF728FD6C
:1022900002460B46CDE90A23FFF7CCFD8246FFF745
:1022A000A5FD02460B46DDE90A01FFF705FD0246E2
:1022B0000B46CDE90A2300227B4BFFF71BFE0028CB
:1022C00000F0FE800AF1010A5046FFF78FFD02463A
:1022D0000B46DDE90801FFF7E5FD10B14FF0000AFC
:1022E0000134002E00F0FD80681E0EABDFF8CCC17B
:1022F00018440FE0ACFB0A21C90801EB8102AAEBEC
:1023000042023032BAF1090F00F8012F40F21C816D
:102310008A461D46202D05F1010306F1FF36E9D15D
:102320002025691E0EAB6148194410E080FB046251
:10233000C3EBA20303EB8302A4EB420404F13002DB
:1023400001351C4601F8012F002B00F0EB80202DF9
:102350004FEAE473EAD1079B03F00303012B18D182
:10236000BBF1000F15D00D9B002B00F00A810BF183
:10237000FF3BBBF1200F0CD96B1E0EA930220B4482
:1023800005E001355D4503F8012F80F0D180202D57
:10239000F7D1079B0EACCDE902B341464B46384618
:1023A0000C9A01950094FFF7B7FD8246504617B08E
:1023B000BDE8F08F079B9DED047BCDE923B341463B
:1023C0004B4638460C9A8DED207B229517B0BDE820
:1023D000F04F00F045B9610723464CBF04230323A7
:1023E0004146219338464B46079A48BF304CCDE9C9
:1023F00022B258BF2F4C0C9A209417B0BDE8F04F72
:10240000FFF78ABDDDE9042300200021FFF754FC1B
:102410000123CDE904010D9323460DE723469C07D4
:1024200040F0AA80BBF1040F40F2A6800C9B1D4631
:102430001C1F04EB0B0A2A464B464146202001355F
:10244000B847AA45F7D155461B4C261F14F8010D75
:102450002A464B464146B847B44205F10105F5D13D
:10246000079B0AF1040A9807A0D50C9CAAEB040369
:102470009B459BD952464B46414620200AF1010A12
:10248000B847AAEB04035B45F4D38FE7AFF30080B2
:102490000000000065CDCD410000000065CDCDC13C
:1024A000FFFFEF7F585200200000E03F676666663E
:1024B000FC5100200452002010520020CDCCCCCC86
:1024C0000022DDE90A01634BFFF7D8FC00287FF406
:1024D00008AFBAF1000F6AD10AF1010A002E7FF4A9
:1024E00003AF2046FFF770FC02460B46DDE904010E
:1024F000FFF7E2FB02460B46CDE904230022554BD1
:10250000FFF7BCFC00287FF40CAFDDE904010022DA
:10251000504BFFF7EFFC00287FF403AF013424F0A9
:102520000104FEE6079B03F00303012B00F0828009
:10253000202D3FF42EAF0D9B7BB32D220DEB050319
:1025400083F83820013524E7202B3FF4E9AE0EAAAA
:1025500015441E44302204E0202B05F8012F3FF4DF
:10256000DFAE9E4203F10103F6D12E220DEB0603EE
:1025700083F83820751CD4E6DDF830A063E7202509
:102580006EE6079B13F00C0F50D00BF1FF3BAB45F1
:102590003FF6F2AE202D3FF4FCAE079B5A0701D563
:1025A0002B22CBE71B077FF5F4AE2022C6E71AF0FB
:1025B000010F3FF496AE8FE7A60734D1BBF1030FAE
:1025C00031D90C9B1D46DC1E04EB0B0A2A464B46F8
:1025D000414620200135B8475545F7D155461E4C98
:1025E000E61E14F8010D2A464B464146B847A6425E
:1025F00005F10105F5D1079B0AF1030A9D077FF557
:10260000D5AE0C9CAAEB04039B457FF6CFAE524699
:102610004B46414620200AF1010AB847AAEB0403C1
:102620009B45F4D8C2E6DDF830A0D7E7AB453FF6CE
:10263000A3AEAEE6BBF1000F3FF47AAF0D9B002BCB
:102640009FD00BF1FF3B5D45FFF496AE202D7FF44C
:1026500074AF9EE60000E03F0B5200200000000037
:102660002DE9F04F9FB02A9EDDE9284507469346A5
:102670000891099322462B46204629460E96DDE90D
:102680002BA6FFF7E9FB002840F0BE802046294634
:102690004FF0FF32784BFFF72DFC002840F0B4805C
:1026A000204629464FF0FF326FF48013FFF7E6FB18
:1026B000002840F0A9802046294600220023FFF789
:1026C000DDFB002840F0D581CDE90A45DDE90A238C
:1026D0009046994606F4006216F480630F921393B5
:1026E00040F0A18058EA090340F0CA80002A40F077
:1026F000E38106230E9316F00202109240F0D4817B
:102700005346042B38BF04230C920422043B12923C
:102710000F932046294600220023FFF7AFFB002835
:1027200040F0F3819DED0A7B0F9B5A4603930E9B6D
:102730008DED007B029326F4006304933846099BD9
:102740000899FFF72DFD024616F0200F099B089906
:102750000CBF6520452002F10108B8470C9A129B76
:1027600016AC5D1E82EAE273A3EBE273D10F002682
:1027700022469946DFF804C101E0202E10D0CE4653
:10278000ACFB0930C00800EB8003A9EB43033033F6
:10279000BEF1090F814606F1010602F8013BECD8B3
:1027A0000523002006930A2305950094099D089CA3
:1027B0004246CDE90330CDE901612B46214638463A
:1027C000FFF7F8FB109A8046D2B1A0EB0B06B2459A
:1027D00016D90BEB06022B46214620200136B847BE
:1027E000B245F6D80BF1FF335344CBF10102A3EB12
:1027F00008034244924538BF002308F10108984479
:1028000040461FB0BDE8F08F5A463846CDE928450E
:10281000CDE92BA60E9C099B08992A941FB0BDE810
:10282000F04FFFF7BDBC58EA09032BD1002A3FF453
:1028300062AF00230C930E9B0C9A934200F3B98174
:102840004FF000082046294600220023FFF716FB20
:10285000002840F013819DED0A7B26F4006646F4C3
:1028600080668DED287B5A463846CDE92A8A099B39
:1028700008992C96D2E700BFFFFFEF7FCDCCCCCCE0
:1028800006230E93C9F30A50A0F2FF30FFF79CFA1B
:10289000C1A3D3E90023FFF723FAC1A3D3E900239F
:1028A000FFF7F6F9C9F31309CDE90C0149F07F519F
:1028B00040460022B24B41F44011FFF7FDF9A4A3BA
:1028C000D3E90023FFF70CFA02460B46DDE90C01C1
:1028D000FFF7DEF9FFF79CFA0C90FFF775FA9EA35D
:1028E000D3E9002380468946FFF7FAF90022A54B79
:1028F000FFF7CEF9FFF78CFA03464946404612939C
:1029000097A3D3E90023FFF7EBF980461298894695
:10291000FFF75AFA94A3D3E90023FFF7E1F902463F
:102920000B4640464946FFF7C7F902460B4680462C
:102930008946FFF7D5F942464B46CDE9100140469E
:102940004946FFF7A5F90022CDE91401DDE91001A0
:102950008D4BFFF7EBF900228C4BFFF799F90246FC
:102960000B46DDE91001FFF7E1F90022884BFFF784
:102970008FF902460B46DDE91001FFF7D7F9424611
:102980004B468046894600204FF08041FFF794F97E
:1029900002460B4640464946FFF77AF902460B4687
:1029A000DDE91401FFF7C2F900227A4BFFF770F955
:1029B000129B002203F2FF3C4FEA0C53FFF790F901
:1029C00080468946DDE90A0142464B46FFF756FA42
:1029D00050B10C9B4046013B49460C9300226B4B87
:1029E000FFF7A4F9804689460C9A43466332C62A0B
:1029F00006F00202109249460F9A2CD8002A5ED0A7
:102A0000042212920B433FF416AFDDE90A0158A3EA
:102A1000D3E90023FFF75AFA48B1DDE90A0156A3CA
:102A2000D3E90023FFF72AFA00287FF404AF0E9BB6
:102A3000002B50D0139A002A7DD0013B0E93129B9D
:102A40009A4505D9109B002B00F0AE80022310930D
:102A500000230F9344E022BBBAF1050F4FD906F0D3
:102A60000203002B49D105231293AAF105030F930A
:102A70003AE005F100430A940B9327E626F400663A
:102A800046F4806638462C96DDE90A67344607F13D
:102A900000455A46CDE92A8ACDE92845099B08997F
:102AA000BCE605221292ADE700230222CDE90F32E7
:102AB00004220C9312922CE64FF00508C2E6BAF1FC
:102AC000040F1FD9109B002B78D104231293AAF175
:102AD00004030F9304E0129B9A4531D80E9B0F9389
:102AE0000C9B002B3FF415AEDDE90A0142464B4634
:102AF000FFF71CF9CDE90A010BE602231093052329
:102B00001293F1E704231293EAE7DDE90A45A046B0
:102B10000F9B05F1004903930E9B5A46029326F43E
:102B2000006304933846CDE90089099B0899FFF7B3
:102B300037FB024608E6129B9A4544D80F92CFE72E
:102B4000109B8BB30E9B0F9302231093C8E700BF1B
:102B500061436F63A787D23F71A379094F930A40FE
:102B60001655B5BBB16B0240EF39FAFE422EE63F77
:102B70002D431CEBE2361A3F0000000080842E41FA
:102B80000000F83F0000E03F00002C40000024401F
:102B9000000018400000F03FFB799F501344D33FE2
:102BA000B3C8608B288AC63F129BAAEB03030F931E
:102BB00096E7A3EB020808F1FF3843E604231293DB
:102BC000022310938CE7109B002BEDD002230F9271
:102BD000109385E72DE9F04F9BB0249C954D0A9406
:102BE000954CB1F1000A18BF834625601878934CC4
:102BF000914608BFA3460993002800F093824FF046
:102C000000080AE042464B46514608F10108D84701
:102C1000099B1878002800F0CE80099B252803F135
:102C200001030993EED11C460023224612F8010B42
:102C3000A0F1200110290AD8DFE801F04009093C81
:102C40000909090909090938093409093000A0F1FD
:102C500030010929099440F28A802A2800F0F08086
:102C600000252E2800F096800026A0F16801122988
:102C70002DD8DFE811F049012C0043012C00380168
:102C80002C002C002C002C002C002C002C002700E9
:102C90002C002C002C002C002C002700144643F0A4
:102CA0000103C2E7144643F00203BEE7144643F0B3
:102CB0000403BAE7144643F01003B6E7144643F0A2
:102CC0000803B2E70999487843F480730132672812
:102CD00009927ED8242840F2C180A0F12502422A20
:102CE00000F2BC80DFE812F05001BA00BA00BA006E
:102CF000BA00BA00BA00BA00BA00BA00BA00BA0004
:102D0000BA00BA00BA00BA00BA00BA00BA00BA00F3
:102D1000BA00BA00BA00BA00BA00BA00BA00BA00E3
:102D2000BA00BA00BA00BA00190137011901BA0095
:102D3000BA00BA00BA00BA00BA00BA00BA00BA00C3
:102D4000BA00BA00BA00BA00BA00BA00BA00BC01B0
:102D5000BA00BA00BA00BA00BA00BA00BA00BA00A3
:102D6000BA00BC015801BC01190137011901002545
:102D700000E0013205EB850500EB45051078303D9C
:102D8000A0F130010929F4D92E28099202F101029B
:102D90007FF46AAF099943F4806348781146A0F143
:102DA0003006092E40F221812A2800F02F81099255
:102DB0000026013259E74446C14501D809F1FF38E0
:102DC0004B46424651460020D84720461BB0BDE83E
:102DD000F08FA0F16902D2B20F2A3FD8012149F247
:102DE00041079140394040F0F3800A2A3DD0072A3C
:102DF00034D10A9D55F8042B002A00F0138143F0CA
:102E0000210012AB1F460B9303E0202900F0148130
:102E10001A4602F00F042346092C94BF303337338F
:102E20000F2A07F8013B01F101014FEA1213ECD818
:102E300002E100BFD52B00207C550020151F00208B
:102E40000A99099851F8045B4078002DCDE90921D1
:102E5000BCBF43F002036D42013202E742464B46DB
:102E6000514608F10108D847D2E60A99002E51F8D8
:102E7000047B18BF3246387808BF4FF0FF32002875
:102E800000F07B83BC18A4463A4604E012F8014FD8
:102E9000002C00F03F819445F8D16446E41B5A05AC
:102EA00040F12281B44228BF344613F0020300F0FF
:102EB00088820223CDE90A5142461D46464408E075
:102EC0004B465146D84717F8010F08F1010810B1D9
:102ED00042464645F4D12B460B990A9D002B40F003
:102EE00041810A9194E6099948786C287FF4ECAE08
:102EF0000A46887843F440730332E8E6099943F4BC
:102F0000007348780132E2E609994878682800F0B1
:102F1000038143F080030132D9E6672800F0D980AD
:102F2000472800F0DC80452800F0DB80CDE9035322
:102F30000A9B0296073323F007031C464246F4E837
:102F400002674B4651465846CDE900670A94FFF7A1
:102F500087FB80465CE6462808BF43F02003CDE9A6
:102F600003530A9B0296073323F007031C4642468D
:102F7000F4E802674B4651465846CDE900670A948B
:102F8000FFF70EF9804643E642464B465146252060
:102F900008F10108D8473BE60A9A990702F10404B0
:102FA00008F1010640F1C68010784B464246514672
:102FB000D847012D88BFA84440F2BD8132464B4618
:102FC000514620200136D8474645F7D10A941FE6DE
:102FD0006F2800F0818040F24882782800F09081CC
:102FE0000A2723F01003BC4641E0002606EB8606C4
:102FF00000EB4600A0F1300611F8010FA0F13002FD
:10300000092AF3D90A46099101322EE6DDE90921A0
:1030100051F8046B9078023209920A91013226EA43
:10302000E67622E623F0100013F4806240F02100DF
:103030003FF4E7AE12AB0B930B9B06900093082373
:103040001020059300234246CDE9023001914B4602
:10305000514658460496FEF7ADFF0A958046D7E5DF
:10306000582862D0622840F08F800227BC4613F4B3
:10307000806000F0DD8023F00D0313F4007240F057
:1030800081810A990F1D13F4807140F037825C062C
:103090000A9A40F13B811278002A40F04E8123F0D9
:1030A0001003002800F04981114612AA0B92CDE9C5
:1030B0000553CDE903C601910B9B424600930023C3
:1030C0005146029358464B46FEF774FF0A978046D6
:1030D0009EE543F4006329E70827BC46C7E743F4AD
:1030E000006343F0200321E713F0020300F08E8118
:1030F00002230A951E460D4642464B465146D84786
:1031000017F8010F08F101080028F5D129463346C8
:103110000A9DE3E6D41BC2E60A46887843F0C00362
:103120000332D4E50446804646E6102743F02003E8
:10313000BC469CE7012D40F2F880464608F1FF3777
:103140002F4432464B46514620200136D847BE42D6
:10315000F7D10A9B3246187851464B46D847A844C7
:103160000A9455E54646A5427FF6BBAEA844A8EBB7
:1031700004080C4632464B46514620200136D847BB
:103180004645F7D12146ACE613F4806200F0BB80DF
:103190004FF4806223F0110C1CF400770A9B4AD193
:1031A0001CF4807003F1040440F034811CF0400FE3
:1031B00040F0A3801CF0800F00F0D381B3F9001021
:1031C00081EAE177A7EBE177BFB2CB0F002900F0EE
:1031D00056813A4612A90F46DFF8D8E30B910A93BD
:1031E0000C9501E020280FD01546AEFB0213DB083A
:1031F00003EB8301A2EB41013031092D1A4600F1A6
:10320000010007F8011BEDD80A9B0C9DCDE9055C78
:10321000CDE9010304960B9B424600930A235146D5
:10322000039358464B46FEF7C5FE0A948046EFE4EA
:1032300023F00C0321E7073323F007031946084660
:103240005B6850F8081BDF0F0A9051EA030062D157
:10325000002A40F09F811346114612AACDE90C7551
:1032600000201546CDE90E68DFF848E30B9201E037
:1032700020282DD05A1842F10002AEFB027828F027
:10328000030707EB9807D21B1E469B1A61F1000744
:103290000C464FF0CC3101FB03F10EFB0711A3FBF1
:1032A0000E731944052307F00108A8FB03389B1887
:1032B0000A2E03F130034FEA570774F1000405F8B2
:1032C000013B00F1010047EAC1734FEA5101CFD23F
:1032D000DDE90C75DDE90E680B9B424600930A237D
:1032E000CDE9055CCDE90107049603934B465146B1
:1032F0005846FEF75FFE80468AE419780F4664E779
:103300001027BC46B3E623F0100C45E71C064CBF63
:1033100012881268C0E60A46191E01DB13469CE7B4
:103320005242134661EB410197E713465146187824
:1033300042464B46D847B04648E613F0200F14BF2C
:103340004120612012ACA6460B940A93A0F10A0416
:103350000C9502E0202912D02A46B2FBFCF50CFBAA
:103360001520C3B2092803F130008ABF1B19C3B26C
:10337000DBB262450EF8013B01F10101EAD20A9B82
:103380000C9D94E60A9A073222F00702516852F81F
:10339000084B8E460A9254EA010276D123F01003BC
:1033A000002872D00022114612AA0B92CDE90553D3
:1033B0000B9B424600930023CDE903C60191029383
:1033C00094E7A54298BF01347FF674AD4FF4806353
:1033D000CDE90A7505EB08021F460D46141B42464F
:1033E0004B465146202008F10108D847A045F6D1A8
:1033F0003B460A9F294638780B9D6C1C00283FF4F9
:1034000070AD002B3FF475AE002353E5A542DFD825
:1034100001346EE61968CB0F002900F0A88081EA1C
:10342000E172A2EBE17212A90846DFF888E10B9184
:103430000A930C9501E0202F0FD01546AEFB021326
:10344000DB0803EB8301A2EB41013031092D1A4661
:1034500007F1010700F8011BEDD80A9B0C9DCDE98F
:10346000055CCDE901730496D5E6692823F0100CBC
:1034700040F08C8013F480623FF48EAE88E6002A20
:103480003FF4A8AE12AA0B92C0E613F0200F14BFAF
:1034900041226122002012A90A3ACDE90E68CDE945
:1034A0000C35CDF844B006468846754693460B91D8
:1034B000CDF840C003E0202E17D004460D46294623
:1034C0003A460023204601F06DFBD2B2092A02F1F0
:1034D000300388BF02EB0B03BC42DBB275F1000581
:1034E00008F8013B06F10106E5D23146DDE90C356D
:1034F000DDE910CBDDF83C800E9E57E70A9909689C
:1035000051B923F0100338B112A90B91CDE905533D
:10351000CDE903C60192CFE513F0200F14BF41207F
:10352000612012ACA6460B940A93A0F10A040C95F4
:1035300002E0202A12D02946B1FBFCF50CFB151045
:10354000C3B2092803F130008ABF1B19C3B2DBB232
:1035500061450EF8013B02F10102EAD20A9B0C9D83
:10356000D4E7196881EAE177A7EBE1772DE6002A35
:103570003FF459AF12AA0B9271E713F480640DD097
:1035800013F0020412D004464646ECE50A276346CF
:10359000BC466CE512AB00200B939DE613F00203D2
:1035A0007FF4E0AD002D7FF413AF9AE4002D7FF49B
:1035B0000DAF96E4CDCCCCCC70B594461E460546F6
:1035C0000C4684B04FF0FF32634602A900960348D0
:1035D000CDE90254FFF7FEFA04B070BD912100203E
:1035E00010B5094B84B01C684CB1034600914FF0F4
:1035F000FF3203A90548A047012004B010BD00F028
:1036000063F9204604B010BD7C55002089210020BC
:1036100000BEFDE708B5FFF7FBFF00BF38B5064C5D
:10362000064DFEF743FAAC4204D254F8043B9847E7
:10363000AC42FAD338BD00BF905300209053002015
:1036400003680846114618472DE9F0411546427DAA
:1036500007468846002A46D0002D1DDD0B780A2B30
:1036600023D0012D4FF0000C18D04646012416F847
:10367000012F21460A2A04F1010422D0A542F6D1E5
:1036800065450BDC08EB050313F8013CA3F10D03C2
:10369000B3FA83F35B093B75BDE8F0813B68A5EBAA
:1036A0000C0108EB0C009847ECE7037D002BD8D108
:1036B000036802210F489847012DE3D04FF0010C19
:1036C000D3E716F8013C0D2BD8D08C4508EB0C0045
:1036D000A1EB0C0101DA3B689847022105483B68E1
:1036E0009847A446CAE7294640463B68BDE8F041F2
:1036F000184700BFA85200200B682DE9F041802B2D
:103700000D46064605D05A1C2B442A601E71BDE8A2
:10371000F0810F4B1C68A4B10E4F01F1040801E0C9
:10372000246974B12368002BFAD03B680BB1A34223
:10373000F6D1204641462A68FFF786FF2469002C0F
:10374000F0D1002301222B442A601E71BDE8F081D4
:1037500074550020785500202DE9F04782B00D46C1
:1037600091461C460646FEF781F84FF0FF3C6FF08D
:1037700000472E4A821841F10003944577EB03017C
:103780003CBF62463B462A48FCF77EFD6B1C8046E8
:1037900040D00CB3274F284B1C68B4B1B9F1000FCF
:1037A0001CD1DFF89C9001E0246974B12368002BE0
:1037B000FAD0D9F800300BB19C42F5D120462A4608
:1037C0003146B8472469002CF0D1B8F1000F26D15A
:1037D000284602B0BDE8F087184FDCE74FF00A0A30
:1037E000DFF85C9002E02469002CEED02368002B07
:1037F000F9D0D9F800300BB1A342F4D12A463146B2
:103800002046B847012220460DF107018DF807A098
:10381000B847E8E7304601F049FC0546B9E70448F7
:10382000FCF766FD284602B0BDE8F08740420F0075
:1038300050530020493600207455002041360020A6
:1038400078550020F0B583B006468DF80700FEF7E6
:103850000DF84FF0FF356FF00044174A821841F120
:103860000003954274EB03013CBF23462A461348EC
:10387000FCF70AFD124B07461C689CB1114D01E094
:1038800024697CB12368002BFAD02B680BB19C42D1
:10389000F6D1204601220DF10701FFF7D5FE24697C
:1038A000002CEFD117B9304603B0F0BD0348FCF748
:1038B0001FFD304603B0F0BD40420F0050530020C2
:1038C000745500207855002038B5044601F0EEFB11
:1038D000012305461A4620462946FFF73DFF084BBF
:1038E0001C682CB163682BB198472469002CF9D16E
:1038F000284638BD2469002CF4D1284638BD00BFC5
:10390000745500202DE9F041A2B004460D46FDF7A4
:10391000ADFF4FF0FF376FF00046264ADFF8A48076
:10392000821841F10003974276EB03013CBF3A460F
:1039300033462148FCF7A8FC00272B4622460646C2
:1039400001A91E480197FFF737FE019B0546D8F8ED
:103950000040C3B1002C2BD0194F01E0246974B191
:103960002368002BFAD03B680BB1A342F6D1204666
:10397000019A02A9FFF768FE2469002CF0D1002308
:10398000D8F8004001932CB1636843B1984724698B
:10399000002CF9D12EB9284622B0BDE8F081246967
:1039A000F1E70548FCF7A4FC284622B0BDE8F08109
:1039B0000194EFE740420F0050530020F9360020F9
:1039C00078550020745500200FB400B583B004A9C9
:1039D00051F8040B0191FFF795FF03B05DF804EB7C
:1039E00004B07047384B2DE9F047984214BF4FF4AC
:1039F00000234FF4802307460E46344D344C354A9D
:103A00002B602360956833EA0505FBD10620FDF79E
:103A1000B1FF39464FF0020A51F804EF4FEAD65988
:103A20004FEA462C01F5405863464A4654460EEA92
:103A30000A0EC8F800A008E013EB0C0304F102041E
:103A400042EB0902B4F5807F03D0984275EB020A7D
:103A5000F2D24FF48073C4EB042201E0012B30D08A
:103A6000B0FBF2FC66459946A2EB040203F1FF337A
:103A7000F4D209FB04F91D023C6102243B460326F3
:103A80003A6801F500516A4007F5805C02F47F4214
:103A9000CCF80020C1F800E07D68C8F8004053F879
:103AA000242B254082F0070202F0CF0203F50053D9
:103AB000CCF80020B0FBF9F00D601E600C60BDE892
:103AC000F087A146D8E700BF000008400020024070
:103AD0000030024000000240084B30B4984214BF4E
:103AE0004FF400234FF4802302250324044900F5FA
:103AF0004052556054620B6030BC70470000084073
:103B0000002002402DE9F04F85B0414C06460D469D
:103B1000D4E9021000AF00F0C5FF637CA3BB05F140
:103B2000080222F00702E946ADEB020DE8466123E8
:103B300005F1010BADEB020DBBF1010FEA4688F870
:103B4000003054D92A46FF2108F1010001F0EAF9BA
:103B5000E07800F0E3FF41465B466A46E06800F02B
:103B6000BBFF8046E07800F0D3FF2A4630460AF1DA
:103B7000010101F025FACD46E06800F0ABFF4046B8
:103B80001437BD46BDE8F08F4FF66073E0783B8197
:103B900000F0C4FF022307F10C0207F10801E068FE
:103BA00000F09AFF8046E07800F0B2FF7B7B202B8C
:103BB00005D8B8F1000FB2D14FF00008DCE7E0788B
:103BC00000F0ACFF02200021FDF7F2FCE22301220D
:103BD000391DE0683B71FCF7F1FB02200021FDF785
:103BE000E7FCE07800F094FF4FF00008C4E7E078CD
:103BF00000F094FF41465B466A46E06800F06CFFC7
:103C00008046E07800F084FF002DB4D0ADE700BF1F
:103C10003053002070B50446007986B0E378A2786E
:103C200000900E462078617800F08AFF0128034654
:103C300002D0184606B070BD264D2068264A28607E
:103C40002179CDE904226A78297106A901EB920253
:103C5000297812F8080CCA1E48BF0A46AC7806A993
:103C600001EBA20212F8081CA21E48BF621C06AC9F
:103C70004FF0010C04EBA20200246844ADF80C40A4
:103C80008DF80E40694480F80CC0087B12F8082CAF
:103C900060446A440873117B614411739DF80C20E1
:103CA000032A11D09DF80D20032A03D0234618467D
:103CB00006B070BD09490A4A8E4228BF0E46184612
:103CC000C5E9026206B070BD0449064A8E4228BFAB
:103CD0000E46F4E73053002000000101E07072004E
:103CE00000800840000008402DE9F04F85B00346F1
:103CF000204C00AFD4E902107B6000F0D3FE41F20B
:103D00000A0307F10C06BB8107F10E0BE27DE846C2
:103D100002F1080101F4FC71ADEB010D6D4616F8DE
:103D2000013BADEB010D03F01F0343F02003EA4616
:103D300002F101092B701AB17968681C01F040F991
:103D4000E07800F0EBFE29464B465246E06800F072
:103D5000C3FE0546E07800F0DBFEC5460DB15E45CA
:103D6000D4D1E06800F0B6FE28461437BD46BDE861
:103D7000F08F00BF3053002070B5831E7B2B82B0C4
:103D800003D90025284602B070BD25230C4E0446F9
:103D90008DF80100F0788DF8003000F0BFFE0223AE
:103DA000694601AAF06800F097FE0546F07800F039
:103DB000AFFE2846022D18BFB47DB47502B070BDA9
:103DC000305300202DE9F0410446774D88B0D5E905
:103DD000021000F067FE6420FDF756FC287900F021
:103DE000A9FE0120FDF750FCE87800F091FE002CC0
:103DF00036D0217894F806C04B1E022B98BF0123C1
:103E00002079ACF1020888BF0023B8F17B0F98BF7E
:103E1000013310F0F70F6778A27894F803E0667921
:103E200025D0202823D03F2F00D00FB90133DBB29B
:103E300066B3022E01D0042E1ED10133BEF10F0F46
:103E4000DBB21ED80133DBB22AB1102A03D0202AFC
:103E500001D0302A01D10133DBB2072B1ED0002460
:103E6000E86800F037FE204608B0BDE8F081013375
:103E70003F2FDBB2D9D1D9E7062E07D0BEF10F0F05
:103E8000E0D9002AEBD0102AE1D1E8E70133BEF1F6
:103E90000F0FDBB2D8D80133DBB2D5E740F21D53A8
:103EA00042EA0E0E47F20702ADF818301C23ADF8B7
:103EB0001C20042230438DF8170003208DF81A309F
:103EC000052303298DF812204FF006028DF81110FA
:103ED00028BF03218DF8100020688DF81430334B73
:103EE0002861A0888DF816200393A279304B023107
:103EF000E9758DF813E08DF815C08DF81B7003AED1
:103F000098809A710DF11C0803E00236F4B1464521
:103F10001CD03778E87807F01F0343F020038DF8B2
:103F2000043073788DF8053000F0F8FD0223E8685E
:103F300002AA01A900F0D0FD0446E87800F0E8FDEF
:103F4000002FE2D10520FDF79FFBDEE7E87800F0C7
:103F5000E5FD02200021FDF72BFBE123012202A950
:103F6000E8688DF80830FCF729FA00210220FDF7F7
:103F70001FFBE87800F0CCFDE87800F0CFFD0220D0
:103F80000021FDF715FBE223012202A9E8688DF864
:103F90000830FCF713FA02200021FDF709FBE8784E
:103FA00000F0B6FD5CE700BF30530020000E013F7B
:103FB0004053002030B50446204D83B0D5E90210AF
:103FC00000F070FD14F0F70F06D0202C18BF00246D
:103FD00002D0204603B030BD4FF606720023E878C9
:103FE000ADF80020ADF8043000F098FD694601AA54
:103FF0000223E86800F070FDE87800F089FD2622D1
:104000009DF8053004F0280403F006032343E87804
:104010008DF800208DF8013000F080FD0223694604
:1040200001AAE86800F058FD0446E87800F070FD49
:10403000E86800F04FFD204603B030BD305300204B
:104040002DE9F04782B0334C00AFD4E9021000F004
:1040500029FD4FF47F420023E0783A80BB8000F0D6
:104060005DFD02233A1D3946E06800F035FDE07839
:1040700000F04EFD7B79DA0713D5637E03252BBB59
:10408000207900F051FD00218220FDF791FA0323F1
:10409000E068237600F01EFD28460837BD46BDE8DF
:1040A000F087202243F00103E0787B703A7000F043
:1040B00035FD022339463A1DE06800F00DFD054646
:1040C000E07800F025FD637E002BD9D0E27DE84644
:1040D00002F1080303F4FC73ADEB030D6E46ADEB88
:1040E000030D2A23E94602F1010A33701AB10A4985
:1040F000701C00F065FFE07800F010FD53464A4662
:104100003146E06800F0E8FCE07800F001FDC546CB
:10411000B6E700BF305300204A53002070B50D466B
:10412000174C0646D4E9021082B000F0BBFC0F2DFC
:1041300004D816F0EF0F08D0202E06D00025E06836
:1041400000F0C8FC284602B070BD242345EA0600F2
:104150000278E0788DF801208DF8003000F0DEFC68
:104160000223694601AAE06800F0B6FC0546E07843
:1041700000F0CEFCE06800F0ADFC284602B070BD57
:104180003053002030B50446224D83B0D5E90210EB
:1041900000F088FC14F0FD0F09D0042C18BF002497
:1041A00005D0E86800F096FC204603B030BD4FF61D
:1041B00006720023E878ADF80020ADF8043000F076
:1041C000ADFC694601AA0223E86800F085FCE878A6
:1041D00000F09EFC26229DF8053004F0060403F052
:1041E00028031C43E8788DF800208DF8014000F08A
:1041F00095FC0223694601AAE86800F06DFC0446BC
:10420000E87800F085FCE86800F064FC204603B024
:1042100030BD00BF3053002030B5204C83B0D4E90E
:10422000021000F03FFC237E032B05D0E06800F075
:1042300051FC032003B030BD4FF47F430025E078EC
:10424000ADF80030ADF8045000F068FC6946022378
:1042500001AAE06800F040FCE07800F059FC202260
:104260009DF80530E07823F001038DF800208DF8EB
:10427000013000F053FC0223694601AAE06800F017
:104280002BFCE07800F044FC207900F053FC822005
:104290000021FDF78DF92576C8E700BF30530020D7
:1042A0002DE9F0410E46294C0546D4E9021084B0B0
:1042B00000F0F8FB731E1F2B26D841F21563244A29
:1042C000062DF6B20292ADF80C3025D102AF0DF1F9
:1042D0000E0817F8013BE07803F01F0343F02003BA
:1042E0008DF800308DF8016000F018FC022369465B
:1042F000E06801AA00F0F0FB0546E07800F008FC59
:104300001DB1B845E5D100E00025E06800F0E2FB12
:10431000284604B0BDE8F0810DEB05031B7AE07878
:1043200003F01F0343F020038DF800308DF8016087
:1043300000F0F4FB02236946E06801AA00F0CCFB20
:104340000546E07800F0E4FBDFE700BF30530020D3
:1043500011121314F0B5414C83B00546D4E9021094
:1043600000F0A0FB4FF607720023E078ADF80020C4
:10437000ADF8043000F0D2FB022301AA6946E068E0
:1043800000F0AAFBE07800F0C3FB9DF805305A0668
:1043900003F0100703F0200609D42EBB002F35D1FF
:1043A0000025E06800F096FB284603B0F0BD15B18B
:1043B000C3F342032B7044F22703E078ADF80030DA
:1043C00000F0ACFB02236946E06801AA00F084FB20
:1043D000E07800F09DFB3EB9C7B90325E06800F026
:1043E00079FB284603B0F0BD42F22703E078ADF830
:1043F000003000F093FB02236946E06801AA00F058
:104400006BFBE07800F084FB002FC9D041F227035A
:10441000E078ADF8003000F081FB01AA0223694684
:10442000E06800F059FBE07800F072FBE07800F003
:1044300075FB02200021FDF7BBF8E123012201A951
:10444000E0688DF80430FBF7B9FF02200021FDF78A
:10445000AFF8E07800F05CFBA2E700BF305300202B
:104460002DE9F04F87B00546524C00AF0E46D4E917
:10447000021000F017FB504B93E803003861B9823B
:1044800055B1052D70D90026E06800F023FB3046B9
:104490001C37BD46BDE8F08F012394F817903146D4
:1044A0004A4604F11A00637600F08AFD07F118010C
:1044B00011F8083C09F1080121F00701C7F804D000
:1044C000ADEB010DE84603F01F03ADEB010D43F02A
:1044D0002003EB4688F8003009F1010AB9F1000F1A
:1044E00005D04A46314608F1010000F069FDE07848
:1044F00000F014FB414653465A46E06800F0ECFADF
:104500000646E07800F004FBD7F804D007F10C0869
:1045100007F108094FF602730022E078BA813B8167
:1045200000F0FCFA022342464946E06800F0D4FA63
:10453000E07800F0EDFA7B7B43FA05F2D207A3D4D2
:1045400001222221AA401343E07839727B7200F0E5
:10455000E5FA022342464946E06800F0BDFA064605
:10456000E07800F0D5FA8FE705F1100307F10802B3
:10457000991811F8083C012D03F01F03E07843F06F
:10458000200313D0327807F10C0807F108093B72B9
:104590007A7200F0C3FA022342464946E06800F00E
:1045A0009BFA0646E07800F0B3FAB3E794F8179068
:1045B0007EE700BF30530020145200202DE9F04F59
:1045C00085B0BA4C8246237E8846032B00AF00F0AC
:1045D000298107F10C0507F10806D4E9021000F063
:1045E00061FA08F1080323F00703ADEB030DE94678
:1045F000A02208F1010BADEB030DBBF1010F89F80F
:104600000020C7F804D005D94246514609F10100FF
:1046100000F0D6FC207900F087FAE07800F07EFA0E
:104620005B467A684946E06800F056FA4FF0020BA4
:104630008146E07800F06CFA00210F2084F818B071
:10464000FCF7B6FF207900F075FA00234FF60772E9
:10465000E0783A812376BB8100F060FA5B462A4617
:104660003146E06800F038FAE07800F051FA97F847
:104670000D8018F040030FD044F22703E0783B810F
:1046800000F04CFA5B462A463146E06800F024FA16
:10469000E07800F03DFA012318F0200F08F0100A2E
:1046A00040F08680BAF1000F40F09480B9F1020F1B
:1046B00007D0E06800F00EFA00201437BD46BDE8D0
:1046C000F08F002BF5D14FF6077B9A46E078A7F8DC
:1046D00008B0A7F80CA000F021FA02232A463146C0
:1046E000E06800F0F9F9E07800F012FA7B7B03F063
:1046F000200803F010095B0639D544F22703E0785F
:104700003B8100F00BFA02232A463146E06800F0B4
:10471000E3F9E07800F0FCF9B8F1000F2ED1B9F11F
:10472000000FC6D041F22703E0783B8100F0F6F994
:104730002A4602233146E06800F0CEF9E07800F026
:10474000E7F9E07800F0EAF902200021FCF730FFF9
:10475000E12301222946E0683B73FBF72FFE02208C
:104760000021FCF725FFE07800F0D2F9A1E7B8F1CD
:10477000000F03D1B9F1000FA8D0D3E742F227030D
:10478000E0783B8100F0CAF902232A463146E0680E
:1047900000F0A2F9E07800F0BBF9B9F1000FC1D147
:1047A000E06800F097F903201437BD46BDE8F08FAC
:1047B00042F22703E0783B8100F0B0F902232A4659
:1047C0003146E06800F088F9E07800F0A1F9BAF12C
:1047D000000FE5D041F22703E0783B8100F09EF91D
:1047E0002A4602233146E06800F076F9E07800F0CE
:1047F0008FF9E07800F092F902200021FCF7D8FE52
:10480000E12301222946E0683B73FBF7D7FD002135
:104810000220FCF7CDFEE07800F07AF9E06800F0C5
:1048200059F949E7D4E9021000F03CF9237E032B43
:1048300009D007F10C0507F10806E06800F04AF915
:1048400000232376C9E64FF47F434FF00009E07858
:1048500007F10C0507F108063B81A7F80C9000F062
:104860005DF92A4631460223E06800F035F9E07828
:1048700000F04EF920233B727B7BE07823F00103AC
:104880007B7200F04BF902232A463146E06800F0C3
:1048900023F9E07800F03CF9207900F04BF9822010
:1048A0000021FCF785FE84F81890C6E730530020FD
:1048B00030B52A4C83B0D4E9021000F0F3F8637CE1
:1048C00033B10225E06800F005F9284603B030BD99
:1048D0004FF61D72E078ADF80430ADF8002000F01E
:1048E0001DF96946022301AAE06800F0F5F8E078B6
:1048F00000F00EF93D229DF80530E07843F0040306
:104900008DF800208DF8013000F008F90223694687
:10491000E06801AA00F0E0F80546E07800F0F8F859
:1049200035B9E068657400F0D5F8284603B030BDAD
:104930003F23022D6374C5D143F63C73E078ADF894
:10494000003000F0EBF82B466946E06801AA00F061
:10495000C3F80546E07800F0DBF8B3E730530020F9
:10496000F0B52A4C83B0D4E9021000F09BF8667CC5
:104970003F2E06D00325E06800F0ACF8284603B0CF
:10498000F0BD4FF61D730027E078ADF80030ADF8AC
:10499000047000F0C3F8694601AA0223E06800F041
:1049A0009BF8E07800F0B4F83D238DF800309DF8D6
:1049B0000530E07823F004038DF8013000F0AEF804
:1049C00002236946E06801AA00F086F80546E0780F
:1049D00000F09EF89DB1022D6774CCD13C23E078A5
:1049E000ADF8003000F09AF82B466946E06801AA5D
:1049F00000F072F80546E07800F08AF8BBE7E0685E
:104A0000667400F067F8284603B0F0BD305300200C
:104A10001449154B2DE9F047144AC0E90013144C12
:104A2000144BC0E902420363DFF864A0DFF864902E
:104A3000DFF86480DFF864E0DFF864C00E4F0F4EEB
:104A40000F4D1049104A114BC0E904A9C0E9068E68
:104A5000C0E908C7C0E90A65C0E90D12C3630320B5
:104A6000BDE8F087153C0020C53D0020E93C002052
:104A700061440020053B0020B53F00208541002017
:104A8000BD45002055430020194200204140002030
:104A9000A1420020B1480020614900201D410020B2
:104AA000793D002038B50446FEF79CFF23460225D9
:104AB00053F8041F04F5805003F540521560226836
:104AC000294082F0070203F5005302F0CF02026092
:104AD000196038BDFFF700B8F8B51D4604460E460C
:104AE000174602200021FCF763FD2B463A4631466B
:104AF0002046FBF71BFC044600210220FCF758FD72
:104B0000E0B2401BB0FA80F040094000F8BD00BFA1
:104B10004FF0010343EC4000704700BF4FF000032B
:104B200043EC4000704700BF4FF0010343EC4000EE
:104B3000704700BF4FF0000343EC4000704700BFD8
:104B400070B50D4600F0030182B003299DF818608E
:104B500002D0002002B070BD044615F00300F8D169
:104B600002F003010229F5D1104601210193FBF760
:104B700079FE20460121FBF775FE01212846FBF74F
:104B800071FE3046FBF7F4FE019B1846FBF7F0FE82
:104B90004FF0010242EC4460019B42EC44300120A2
:104BA000D8E700BF53B94AB9002908BF00281CBF85
:104BB0004FF0FF314FF0FF3000F0B2B9ADF1080C0B
:104BC0006DE904CE00F006F8DDF804E0DDE902232B
:104BD00004B070472DE9F04F8C46099E04460F46FD
:104BE000002B48D18A4215465ED9B2FA82F33BB116
:104BF000C3F120029F409D409C4020FA02F21743DF
:104C00004FEA154E1FFA85FC220CB7FBFEF10EFB96
:104C1000117701FB0CF042EA0742904207D9AA182B
:104C200001F1FF3702D2904200F258813946121A40
:104C3000A4B2B2FBFEF00EFB102200FB0CFC44EA17
:104C40000244A4450BD92C1900F1FF322CBF0127D7
:104C50000027A44502D9002F00F04381104640EA06
:104C60000140A4EB0C0400211EB1DC400023C6E986
:104C70000043BDE8F08F8B4206D90EB1C6E90001B2
:104C800000210846BDE8F08FB3FA83F1002951D125
:104C90006345C0F01681824240F213810846002E1F
:104CA000E7D0C6E90047E4E7002A00F0AF80B2FA97
:104CB00082F3002B40F0C2808A1A4FEA154EAFB241
:104CC0000121200CB2FBFEFC0EFB1C2240EA02423A
:104CD00007FB0CF090420ED9AA180CF1FF382CBF3C
:104CE0004FF001094FF00009904203D9B9F1000FCC
:104CF00000F0F080C446121AA4B2B2FBFEF00EFB24
:104D0000102200FB07F744EA0244A7420ED92C19EF
:104D100000F1FF322CBF4FF0010E4FF0000EA74202
:104D200003D9BEF1000F00F0D2801046E41B40EA28
:104D30000C4099E7C1F120058B400CFA01F400FA10
:104D400001F922FA05F72CFA05FC8A401F4320FAE4
:104D500005F3380C23431FFA87FE1C0CBCFBF0F84C
:104D600000FB18CC44EA0C4408FB0EFCA4450ED909
:104D70003C1908F1FF3A2CBF4FF0010B4FF0000B2C
:104D8000A44503D9BBF1000F00F0B880D046A4EBD6
:104D90000C041FFA83FCB4FBF0F300FB134403FB89
:104DA0000EFE4CEA0444A6450ED93C1903F1FF302F
:104DB0002CBF4FF0010C4FF0000CA64503D9BCF1FD
:104DC000000F00F09F80034643EA0840A4EB0E0466
:104DD000A0FB02EC64457346E04602D307D1F145DF
:104DE00005D2BEEB02036CEB070C0138E0465EB166
:104DF000B9EB030264EB080404FA05F522FA01F3A7
:104E0000CC401D43C6E90054002132E742082F463A
:104E10004B08AC4642EAC172AE46C407110C92B2CE
:104E200041EA034142EA0142B1FBF5F1B3FBF5F07F
:104E30001F23A2EB0C0241EA004142E79D40C3F16F
:104E4000200299409C402CFA02FC4FEA154E20FAB1
:104E500002F2AFB2BCFBFEF80A430EFB18CC110CF9
:104E600041EA0C4108FB07FC8C4550D9691808F150
:104E7000FF302CBF4FF001094FF000098C4502D9DB
:104E8000B9F1000F30D0A1EB0C01B1FBFEF808FB2B
:104E900007FC0EFB181192B242EA0142624534D27D
:104EA000AA1808F1FF312CBF4FF001094FF000099B
:104EB0006245BED2B9F1000FBBD1A8F102012A446C
:104EC000B7E7841A6CEB030201201746E7E62C448F
:104ED00002382BE7ACF1020C2A440CE702392A44D1
:104EE000A5E62C440238BAE6A5EB0C0CA8F10200AA
:104EF0006144B1FBFEF808FB07FCCAE7A8F1020811
:104F00003C4444E7023B3C445EE7414691E7A1EB69
:104F10000C014046B1FBFEF808FB07FCB9E700BFF7
:104F2000704700BF830730B546D08418844604E03C
:104F300003F8011B9D0704D09C46A4456346F7D1A6
:104F400030BD013A0244A2EB0C02032A29D9CCB2AB
:104F50000F2A04EB042404EB04442FD9A2F1100C13
:104F600003F110052CF00F0CAC44C3E90044C3E975
:104F7000024410336345F8D112F00C0F02F00F0E0B
:104F800018D02EF0030CAEF104051A469C4442F8EA
:104F9000044B6245FBD125F0030404330EF00302F9
:104FA0002344002ACCD0C9B21A4403F8011B93420F
:104FB000FBD130BD7246F4E70346C6E79646E0E70C
:104FC000844641EA000313F0030349D1403A23D356
:104FD0000B6803604B6843608B688360CB68C36079
:104FE0000B6903614B6943618B698361CB69C36161
:104FF0000B6A03624B6A43628B6A8362CB6AC36249
:105000000B6B03634B6B43638B6B8363CB6BC36330
:1050100040304031403ADBD230320BD30B68036072
:105020004B6843608B688360CB68C360103010317D
:10503000103AF3D20C3205D351F8043B40F8043B4C
:10504000043AF9D2043208D0D2071CBF11F8013B50
:1050500000F8013B01D30B8803806046704700BF16
:10506000082A13D38B07B1D010F00303AED0C3F1DD
:105070000403D21ADB071CBF11F8013B00F8013B07
:10508000A4D331F8023B20F8023B9FE7043AD9D37E
:10509000013A11F8013B00F8013BF9D20B7803709B
:1050A0004B7843708B7883706046704720F0030123
:1050B00010F00300C0F1000051F8043B00F1040CB3
:1050C0004FEACC0C6FF000021CBF22FA0CF2134323
:1050D0004FF0010C4CEA0C2C4CEA0C4CA3EB0C02EC
:1050E00022EA030212EACC1204BF51F8043B043056
:1050F000F4D0C2F1000102EA0102B2FA82F2C2F176
:085100001F0200EBD200704712
:1051080053544152544544204144584C0000000037
:10511800535441525445442047554E0053796E63C9
:105128006820766961204750533A20256C6C647575
:10513800730A000053796E63682074696D652031C5
:105148003A20256C6C642075730A000053796E63ED
:10515800682074696D6520323A20256C6C6420756E
:10516800730A000054696D65206469666665726536
:105178006E63653A20256C6C752075730A00000013
:105188000A2A2A2A2050414E4943202A2A2A0A005C
:105198000A000000486172647761726520616C6181
:1051A800726D20256420616C726561647920636C7E
:1051B80061696D6564000000486172642061737301
:1051C8006572740052656C6561736500302E31003C
:1051D800322E322E300000007069636F325F770024
:1051E8004E524632340000004F6374203230203271
:1051F80030323500666E692B00000000666E69006B
:105208006E616E00666E692D000000000A0B0C0DC1
:105218000E0F00000304020506000000033F100AF9
:105228000002780037373737370000000600525041
:10523800D3F07542CC510020060052503ABCA91157
:10524800D451002006005250BBFF3CB6E05100206C
:10525800000000000000F03F0000000000002440B3
:1052680000000000000059400000000000408F408E
:10527800000000000088C34000000000006AF840F9
:105288000000000080842E4100000000D01263411D
:105298000000000084D797410000000065CDCD4193
:0452A8000D0A0000EB
:0852AC0028F9FF7F010000005A
:1052B4003452002040520020240100204C5200208F
:0852C400300100203C01002034
:1052CC0001100000000000000000010000000000C0
:1052DC0000000000000002000000000000000000C0
:1052EC000000030000000000000000000000FF00B0
:1052FC000000000001B5486801318E460047704639
:10530C0009380149884701BD290F00200000000021
:10531C000000000000000000000000000000000081
:10532C00905300200000000000000000C0CF6A0075
:10533C00000008400300100A00066E050000000083
:10534C00000000000000000000000000CD1A00204A
:10535C00011B0020711B0020391B0020511A00205A
:10536C006D1B00203D1A0020F10F00206913002056
:10537C009D1A0020591B00201D1B0020590A0020DB
:04538C00810A002072
:04000005200001795D
:00000001FF
